:020000040800F2
:10000000001000200900000843F63001C4F202018C
:1000100040F20300C0F21000086040F20041C4F258
:10002000020140F28420C0F20000086040F210019A
:10003000C4F2020140F20102C0F20002086800FBB3
:1000400002F0002800D1F1E75F4EDFF880A14FF009
:100050000F054FF000094FF02508307806F1010632
:100060006D1E09F101092CD03178B27BF37B9842E7
:1000700048BF00F01EF8A0EB0300914248BF00F01B
:100080001CF8A1EB020100EB0104444528BF00F07D
:1000900022F838BF00F018F8B9F1E10FDDD340F2D3
:1000A0001441C4F2020140F20200C0F200000860F4
:1000B000FEE79B4603465846F7468B4611465A468E
:1000C000F7464FF00F05C8E74FF07F078AF800703A
:1000D0000AF1010AF7464FF000078AF800700AF1AA
:1000E000010AF74677636F8D2B000C07000A100F8B
:1000F00021211F605D6C70863A02000900000E1815
:1001000016166E67676A7B783B0800000003090CCF
:100110000F65826F60657A7D460A03020005040957
:100120007F67656D6C727B7C4C0500040A0007716B
:100130007677726D77707487701A000D00036F7494
:1001400076726E7079666E8E6A1A000A006C71742F
:1001500073708060757C6581761700116B6F7373A7
:100160007274777D72616D7B742B0A6C6E7273731F
:1001700071777474776E718886386F6E7173747C62
:100180006C707873787C708B8E736F7173746E8BF8
:10019000725E7C7A687B7284767071737477747D1A
:1001A0007867727E6E656E76715B7567717171725C
:1001B0007374747569687C755E756770717172733C
:1001C0007474747A6C000000E4000008D001000828
:1001D00077636F8D2B000C07000A100F21211F6021
:1001E0005D6C70863A02000900000E1816166E67E4
:1001F000676A7B783B0800000003090C0F65826F7B
:1002000060657A7D460A0302000504097F67656D13
:100210006C727B7C4C0500040A0007717677726D66
:1002200077707487701A000D00036F7476726E70A9
:1002300079666E8E6A1A000A006C71747370806041
:10024000757C6581761700116B6F73737274777D9F
:1002500072616D7B742B0A6C6E7273737177747438
:10026000776E718886386F6E7173747C6C7078737A
:10027000787C708B8E736F7173746E8B725E7C7A08
:10028000687B7284767071737477747D7867727E20
:100290006E656E76715B756771717172737474756A
:1002A00069687C755E756770717172737474747A45
:0402B0006C000000DE
:0400000508000009E6
:00000001FF
